:400000000040002011000000910300009103000008B500F097FB00F0BDF9C04638B51222184B1A6002F05CF9174801F025FF012002F076F9302002F043F8144A144B1A604D
:40004000144C8025ED052560134A116802230B431360124A124B1A60124A136808218B431360FA20C00002F07DF80F4802F070F8802212060D4B1A60802212030C4B1A60CE
:40008000256038BD30001040001BB7000600008004010B400C020B4078002E406A2D00007C002E406CF02E40DC05000008010B4000010B4010B572B60022274B1A60002474
:4000C00010E0264863001A195200821891881B195B001A5AC31858880004104300F0C0F90134E4B2012CECD9EE2212061C4B1A6099231B041B4A13601B4A13601B4A136020
:400100001B4B197802220A431A701A4802783C218A4328390A430270197816220A431A70D8221204144B1A602022144B1A60C0229202134B1A608022124B1A608022D203C5
:40014000114B1A6080221202104B1A60FFF766FF00F076F910BDC0466CF02E40AC4701000000024000500F4010500F4020500F4000700F4001700F40080004400001044074
:400180000801044000020440080204400C02044010B5064C2378002B07D1054B002B02D0044800E000BF0123237010BD50120020000000009047010008B5084B002B03D033
:4001C0000748084900E000BF07480368002B00D108BD064B002BFBD09847F9E7000000009047010054120020C00C00200000000038B5114B1B78023B012B1CD8032002F0A7
:400200006DFD051C01F041FE041C032D0AD102F054FF042803D002F050FF062808D101F0D9FF05E002F049FF022801D001F0C4FF201C01F02EFE38BDF024002000B583B04B
:40024000282822D005D8262823D00DD8012807D038E042282FD04F2831D0412832D125E0002000F0CDFE2DE04B88062B2AD906236A4613805380002393806433D380124B24
:40028000187869460BF09CFC1CE0002000F0B8FE18E00E4B1B78042B14D100F053F900F019F900F009F901F0C1FF0BE00848022202F0BFFB06E00022054B1A7002E00020E2
:4002C0000EF078FD03B000BDF8240020F0240020B023002000B585B00A4A13881B0492881343039303AB009304236A469380064B5B88138168460021002200230FF04AFB6F
:4003000005B000BDB44E0100E04C010000B583B0174B1A6800929A8869468A809B798B710022144B1A60144802F03AF862B6134800F008FE022007216A4601F065FC104B47
:4003400018880FF0BBFA0F4B18880FF0B7FA0E4B18880FF0B3FA0D4B18880FF0AFFAFFF7B9FF02F0C3FCFFF743FF00F07FFCF8E7A4470100B4230020944701003D0200005B
:40038000644E0100A04E010048480100984E0100FEE7C04670B50F4E0F4D13E029686B68AC68002202E001C901C30432A242FAD1E868002202E0002102C304328242FAD179
:4003C0001035013E002EE9D102F0FEFAFFF79EFFFEE7C04601000000104F010008B5124A136801218B43136000230AE0032B03D89A000E49505800E00D4899000D4A885025
:4004000001332F2BF2D9FFF755FE00220A4B1A600A4B1B68002B01D1084B1A60024A116801230B43136008BD00001040000000009103000000000020C8000020C00000204C
:400440000323044A1360044A13600022034B1A607047C0463000304030003140000E3F4008B50A1C002102F0EDFA08BD7047C046014B98647047C0460000002010B5041CF6
:4004800001F003FD044A1168044B0B40A4051C43146001F0FEFC10BD00E400E0FFFF3FFF0422014B1A60704700E100E00422014B1A60704780E100E008B5FFF7F7FF044879
:4004C000FFF7D6FF0320FFF7D9FFFFF7E9FF08BD6D0400000422014B1A60704780E200E0034A1168034B0B40400518431060704708020440FFFF1FFF044A11687F230B4003
:40050000C001C0B2184310607047C04600020440024B18680006C00F7047C04604020440024B18680006C00F7047C04600020440034A136883430140194311607047C04613
:400540000C020440034A1068802318401060C009C0B2704710020440002306E04218013A12789B189BB2013989B20029F6D1584280B2704730B5002307E01C182478E4B24C
:40058000CD5CAC4205D101339BB29342F5D3002000E0022030BDC0460047C04608B58022024B1A6001F0C8FD08BDC046C0000020F0B583B00D1C6B469E1DDA8001230B70E1
:4005C0004870141CAA70130ACB70171DB9B2281CFFF7C2FFE855631D000AE854A31D1722EA540734A1B2281C321C962301F0DAFB03B0F0BD70B5051C0E1C141C002802D034
:40060000002001F097FD002004E0013CAB191B5D1818C0B2002CF8D170BDC04608B50C2857D880003A4B1B589F46C9014942394B9C466144012351E0C9014942364B9C46E4
:40064000614404234AE0C9014942344B9C466144022343E0C9014942314B9C46614404233CE0C90149422F4B9C466144012335E0C90149422C4B9C46614401232EE0C90168
:4006800049422A4B9C466144022327E0C9014942274B9C466144022320E0C9014942254B9C466144022319E0C9014942224B9C466144042312E0C9014942204B9C46614401
:4006C00001230BE0C90149421D4B9C466144042304E0002001F02EFD02230021012B02D10878C0B200E00020022B03D10A78487800021043042B0AD10A784B781B021A43C8
:4007000088780004031C1343C8780006184308BDB8470100C0FF0100C1FF0100C5FF0100C9FF0100D0FF0100D1FF0100D6FF0100D2FF0100D4FF0100D8FF0100DCFF0100FA
:40074000E0FF010008B50D4B1B68DB0602D400220B4B1A600A4B1B68802B0ED10022084B1A6002200021FFF759FF002805D002200021FFF753FFFFF70FFF08BD00030B40D7
:40078000C000002070B5051C0320291CFFF746FF441CE4010420291CFFF740FF24180320291CFFF73BFF0130C0010023002608E001784A1ED2B2FD2A00D801265B18DBB20B
:4007C0000130A042F4D35B42DCB20120291CFFF725FF844203D1002E03D1062002E0062000E0002070BDC046F0B55F4656464D464446F0B4CB4CA544051C01F0BBFA62B6F1
:4008000000239B4600270A249946002D01D1FF2300E02B1C52A896214900C34A02AEB446624401F0F5FA002D01D0013CE4B2002C01D00028E9D1002800D006E2BA4B02AAC0
:40084000944663441B88062B24D952AA1278012A22D152A9CA78120289780A439146111C07329A421AD896235B009A4218D84A1D52AB9E5C3202081D1E5C164306315B5C80
:40088000172B0FD181B252A8FFF766FEB0420BD100260AE0042608E0042606E0032604E0032602E0042600E00826002E00D075E152AB1A7992465A78131C313BD9B214294E
:4008C00000D93FE18B009949CB589F46012F00D066E14B46002B00D065E10020FFF752FF4342434152AA13710122A7E1012F00D05CE14B46032B02D0832B00D059E152AA54
:4009000093791B025279134398464B46032B08D0DA1E07A84821FF3102AB9C46614402F088F85346012B00D946E158024044C0017F4B984500D90A26002E00D03FE107A930
:400940008022FFF717FE061C002277E1012F00D037E14B46012B00D036E15346012B00D935E1744B1A6813689278924502D11B04DB0D05E0924501D9002301E080239B006F
:4009800052AA13711B0A5371FF239371FE3BD371042253E1342A0DD1012F00D01AE14B46032B00D019E107A800214C3202F04AF880239B46012F00D012E14B46022B00D882
:4009C00011E107A85844DA1E4821FF3102AB9C46614402F02EF85B464B449BB2832B00D004E152AA93791B02527913439B46504B9B4500D90A26002E00D0FEE05346580283
:400A0000584480B24B4B1B681A68D3099BB2520601D001339BB2984200D2F2E007A901F0B5FA002800D00A2600239B4680339946002203E1012F00D105E104260022FDE0D8
:400A4000012F00D0E4E05B464B4496225200934200D9E0E007A8584453A94A4601F0E9FF5B464B449BB29B460022E7E04B46002B00D0D3E004AA304B03CB03C253AA04AB6C
:400A800003CB03C200239B4601270822D6E0012F00D0C6E04B46032B00D0C5E052AA93791B02527913439846534659024144C9011F4B984500D90A26002E00D0B7E0002051
:400AC0008022FFF797FD019053465B0243449BB25246012A11D1194A93420ED105200021FFF79CFD019B1B1ADBB2984606200021FFF794FD43461B1AD8B2424252AB1A7180
:400B000001229BE00020FFF73DFE002802D180220B4B1A6001F030F901F00EFB042600228CE0C04684FDFFFF6E020000EC470100FF010000C40C002040480100FF030000E9
:400B4000C0000020484B1B68002B72D0012F73D102A90A700A1C4946518053AA039200210491059104AE069202A8311C9847B2882623FF339A4203D953AB0699994207D039
:400B8000069B002B01D1002A05D1049BDEB255E00E26002252E00E2600224FE000224DE0042600224AE00426002247E00426002244E00426002241E0092600223EE0002280
:400BC0003CE00426002239E00426002236E00426002233E00426002230E0042600222DE0042600222AE00426002227E000239B46803399460326002220E0802399460022D0
:400C00001CE000239B46803399460A26002215E00426002212E0032600220FE0042600220CE00426002209E00426002206E0002204E00526002201E005260022301C52A9FC
:400C4000FFF7B6FC01E000239B46002D00D1DCE5012F00D1D9E59F239B009D443CBC90469946A246AB46F0BD6C12002008B50020FFF788FD002801D0062200E00022074B8D
:400C80001B68402B01D0002A05D00022034B1A600020FFF7A9FDFFF781FC08BDC00000207047C046014B18607047C0467012002000B585B0002816D1002916D1012A16D1BD
:400CC0001978642915D8C0000C490818418801A80181828001930021002200230EF05AFE002808D108E0012006E0012004E0012002E0012000E0012005B000BD4848010051
:400D000000B585B0002812D1002912D1012A12D1C0000B490818418801A8018182800193002100220EF000FE002806D106E0012004E0012002E0012000E0012005B000BD26
:400D40004848010000B585B000281AD100291AD1012A1AD8002A03D12C3101AA118105E0C0000C4A1018818801AA118101A88380069B0193002100220EF0D6FD002806D1BF
:400D800006E0012004E0012002E0012000E0012005B000BD4848010030B583B01E4B1B68002B32D083892C2B31D1CE239B001B4AD358DB0422D5041C04300021221C402382
:400DC0000EF0E8FD051E1AD123886A46138000239370D3700193606800F0A0F9C30706D50D4B1B682420FF306946984707E00A4B1B68922040006946984700E00625084AA9
:400E0000137801218B43137002E0002500E00025281C03B030BDC0467012002064480100FB24002030B587B001AC20800C1C1D1C081C111C1A1C0A9BFFF73AFF00281ED1F4
:400E4000104B1B78022B15D1DB239B000E4AD358586800F063F9C3070FD5E4000B4B1C19638803A90B810A9B03938D8001980DF08FFF04E00420FF3001E08020400007B0EE
:400E800030BDC046F0240020644801004848010070B5002905D11A4CE67F0023002200250FE0184CE67FF8E7E25C002A0DD00133DBB2E15C0839012902D99B18DBB200E034
:400EC0000125B34201D2002DEED0002D16D0D218D1B20133DBB21A1C02E0A5540132D2B28A4209D2D51A455D002DF6D104E0A318002018700132D2B29142F8D870BDC04610
:400F0000CC0C00207412002008B5FFF7C9FE00F0B1FF00F075FE00F0BDFA00F06FFD08BD08B50023044A1370044A1370044A1370FFF7EAFF08BDC046FB240020F42400205A
:400F4000FA24002010B590B0041C0BA82049142201F06FFD20231F4AD35C002B05D1FFF7DFFF012120231B4AD154002C2CD01A4B1C6008A805AA426006AB089300210181C7
:400F80001B311980598017391971002313701231694401F063FD002817D1052300930023019302930D480E49AE2212010BAB01F0C3FD002809D101220A4B1A700A483721F7
:400FC0008F320EF063FC00E0012010B010BDC0465048010074120020E024002041120000D0000020F02400206448010008B501F047FE0022014B1A7008BDC046F0240020CE
:4010000008B502282BD81A4B1B78042B29D1194B1B785B0728D4002808D1174B1E221A860232596A0A805B6A5A800AE0012808D1114B96221A86C822D200596A0A805B6A7F
:401040005A800E4B18700C4820300CF01FFD00280CD1084A117804230B43137006E0012004E00420FF3001E00420FF3008BDC046F0240020FB240020CC0C0020FA2400203B
:4010800008B50CF0B5FD034A117808230B43137008BDC046FB2400207047C04610B500281DD0104B9A6B5468998EC9B2002302E0E2540133DBB28B4202D2C25C002AF7D1E7
:4010C0008B4202D2E31800221A70041C0021FFF7DFFE201C0121FFF7DBFE002000E0012010BDC0466448010010B5002812D00A4B9B6B5C681978002302E0C2540133DBB26B
:401100008B4202D2E25C002AF7D1C31800221A70002000E0012010BD6448010003784078000218437047C0460170090A4170704738B583890B2B20D1041C04300021221CB0
:4011400035330EF027FC051E11D16068FFF7E6FF830706D50A4B1B6882204000211C984705E0074B1B680620FF30211C9847054A137801218B43137000E00025281C38BD4D
:40118000E0240020FB240020024B00225A701A707047C046F824002008B500F025FC08BD10B582B0041CFFF7C3FF1B4B1B78DB0704D5002802D1201CFFF7EEFD164B1B78EE
:4011C000DB0702D5201C00F055FD134B1B78DB0704D5002802D1201C00F0A6FA0E4B1B78DB0704D5002802D1201C00F091FC0A4B1B78DB070ED4002809D001A912238B7063
:40120000A3890B80C87020680DF084FD02E020680DF01CFE02B010BDFB2400208379002B07D000200BE0C25C002A07D10133DBB200E00023052BF6D9002000E001207047B6
:40124000F0B583B0051C0C1C7C4A117801230B431370502800D9DFE08300794AD3589F4601AE0727377000237370301C01F094FD377001237370301C01F08EFD714B1E6893
:40128000301CFFF7CBFF00280CD0301C01F032FD6C4E30680021FFF7FFFE30680121FFF7FBFE0BE0684E301C01F024FD301C0021FFF7F2FE301C0121FFF7EEFE03200CF0E2
:4012C00095FA01A83F230370002343700CF0ACFA04225E4B1A709FE022785D4B1A709BE02378002B00D097E06378002B07D1594B0822DA8088329A80574A1A6063604F4AEC
:40130000137801218B43137086E04C4B1B789B0600D581E0514B1B78102B02D105224F4BDA704F4B18784D490CF070FB434A117801230B4313706FE00222444B1A706BE0F7
:401340000422424B1A7067E0404B1B78022B63D03A4A1278D2075FD5384A1278520708D503223A4B1A70354A137804218B43137052E0324A1278120708D50422334B1A70FE
:401380002E4A137808218B43137045E0032B43D104222E4B1A70334B1B78002B3CD10120FFF72EFE002837D10322284B1A7033E02B48211C022201F03CFB0022244B1A7018
:4013C000FFF7EAFE28E0FFF7DFFE25E06188162900D9172120880DF0A7FC1DE0201CFFF7DFFE19E0154B1B78DB0702D5201C00F09BF9124B1B78DB070ED5201C00F088FBD9
:401400000AE00E4B1B78DB0706D5201C00F072FC02E0201C00F086FC084B1A7811231A4209D0064A137801218B4313700E4B1B68281C211C984703B0F0BDC046FB24002072
:40144000E84C0100000D0020040D0020F0240020F424002098120020B00B0020400F0020F8240020FA240020E024002008B54868FFF754FEC30702D5C420400001E08A20B6
:40148000FF30034A137801218B43137008BDC046FB2400207047C046014B18607047C046A012002070B584B000285BD108295BD8062934D88900304C61588F468100081818
:4014C000C0002E49081841883EE081000818C0002A490818C18B37E081000818C00027490818418C30E081000818C00023490818818C29E081000818C00020490818818992
:4015000022E081000818C0001C490818418A1BE081000818C00019490818018B14E0CD1F84002418E400154E34192479A5420ADA84002018C000301880684C006118490038
:401540002A39415A00E0002100290FD001A80181828001930021002200230EF01BFA002806D106E0012004E0012002E0132000E0012004B070BDC0462C4E0100644E0100F4
:4015800070B584B000285AD108295AD8062934D889002F4C61588F4681000818C0002D49081841883EE081000818C00029490818C18B37E081000818C00026490818418C5E
:4015C00030E081000818C00022490818818C29E081000818C0001F490818818922E081000818C0001B490818418A1BE081000818C00018490818018B14E0CD1F840024182B
:40160000E400144E34192479A5420ADA84002018C000301880684C00611849002A39415A00E0002100290ED001A8018182800193002100220EF078F9002806D106E0012076
:4016400004E0012002E0132000E0012004B070BD484E0100644E010010B584B0002837D1022A38D8082939D802293AD905293BD0032909D1022A3AD182001018C000294AEC
:401680001018028C002437E00C1F022C0BD8211C64006118490084002018C0000818214908180C300AE084002018C0001D4C201880684C00611849002A394018002A02D183
:4016C0004288002418E0012A14D18288002413E00022012410E0002201240DE0002201240AE00022012407E00022012404E00022012401E000220124012C10D0002A0BD05D
:4017000001A802818380069B0193002100220EF00BF9002802D102E0132400E00124201C04B010BD644E0100F0B583B06D4B1B68002B00D1D0E0041C03886A4613800023A7
:40174000019393708389182B1CD10023D3700389012B00D0A7E043681B78002B02D0012B08D0A2E0604A137801218B431370C5256D009FE05C4A137801218B4313708C258D
:40178000FF3597E0162B1DD1143B6A46D3700389012B00D08BE043681B78002B02D0012B08D086E0504A137801218B431370C6256D007FE04C4A137801218B4313708E25DF
:4017C000FF3577E01A2B0CD1163B6A46D370031D0193454A137801218B431370C7256D0068E01B2B08D1173B6A46D3700020211CFFF73CFE051C5DE01D2B0CD1183B6A469F
:40180000D370031D0193384A137801218B431370C7256D004EE0002B0CD106336A46D370031D0193304A137801218B431370C7256D003FE0002B2DD106336A46D37000205D
:40184000211CFFF713FE051C34E0A28973009B195B002648C318188882420BD16946CF70211D0191204801780125A943017001218E35FF355B889A4207D16B46DF700020C7
:40188000211CFFF7F3FD051C01210137FFB20136F6B203E00021002507270026012E09D80029D2D006E0002504E0002502E0002500E000250C4B1B78DB070FD4201D002175
:4018C000221C40230EF066F8041E08D1054B1B68281C6946984702E0002400E00024201C03B0F0BDA0120020FB2400208C4E010070B588B001AC20801C1C002961D1082A4A
:4019000061D8042A08D18E007118C900334A52180C32161C002525E0062A08D18E007118C9002E4A52181832161C00251AE0D31F012B14D8181C8B005B18DB00274DEB1812
:401940001B7998420DDA8B005918C90069188E6853009A1852002A3AB618002502E0012500E00125002D36D13388002B2DD07388013B9A00D3189B00194AD3181B6958681A
:40198000FFF7CCFBC3070ED5164B1B78022B1ED1338805A90B810C9B05938C8001980DF0F7F9051C17E0338802A8038184800C9B02930021002200230DF0ECFF002809D156
:4019C00009E0012507E0012505E0132503E00425FF3500E00125281C08B070BD644E010064480100F0240020EE235B00024AD3585B6801221A707047644801007047C04637
:401A0000014B18607047C046A4120020F0B587B00D1C161C01281BD8002815D1101CFFF77DFB041C0190B01CFFF778FB043CA4B2164B9C420ED803280ED9019B98420DD846
:401A4000042D0DD9012410E001290CD901240CE001240AE0012408E0012406E0012404E02F27002401E031270024002C0BD103A80781858003960021002200230DF08AFF4E
:401A8000002800D00134201C07B0F0BDFC3F000010B584B0012809D8002803D1042907D901240AE0012906D9012406E0012404E02F23002401E031230024002C0AD101A867
:401AC000038181800192002100220DF02DFF002800D00134201C04B010BDC04600B585B001280DD100290DD101A83231018182800193002100220DF017FF002804D104E01F
:401B0000012002E0012000E0012005B000BDC04630B583B0214B1B68002B38D08389322B01D02F2B35D1041C03886A46138004300021221C40230DF02DFF051E21D1A389E6
:401B4000322B13D1313B6A469370002301936068FFF7E4FAC30702D5E220FF3001E0F12040000E4B1B68694698470AE000236A469370221D0192094B1B68E420FF306946F9
:401B80009847074A137801218B43137002E0002500E00025281C03B030BDC046A4120020FB24002030B587B001AC2080141C1D1C012917D1012A17D1F9239B000E4AD358BB
:401BC0005868FFF7ABFAC30710D50C4B1B78022B0ED103A92F330B8103958C8001980DF0D7F807E0012005E0012003E0002001E00420FF3007B030BD64480100F024002078
:401C00007047C0467047C04600B585B008280FD840000A4B1818438801A80381818001920021002200230DF0B5FE002802D102E0012000E0012005B000BDC046A04E01005C
:401C400000B585B008280ED84000094B1818438801A8038181800192002100220DF064FE002802D102E0012000E0012005B000BDA04E010010B5021C8389362B11D1184B7D
:401C80001849CB58DB0405D50430002140230DF081FE00E00620144A137801218B4313701CE0352B19D1043000210B330DF072FE8423DB000B4AD3585A680C4B1A60D3782B
:401CC0001B0292780A4C1343073323800121A170054A13788B43137000E0002010BDC0461404000064480100FB240020FC240020A812002008B543681B89352B0DD1037A1E
:401D0000012B05D101200DF055F80022034B1A80034A137801218B43137008BDA8120020FB24002043681A89352A1BD1427A012A13D11A680C4B1A60D3781B029278134384
:401D400007339BB2094A13800822FF32934201D9064B1A800122054B9A70054A137801218B4313707047C046FC240020A8120020FB2400207047C04608B5084B18780BF0C9
:401D8000CDFB002802D005E000F0B0FF044B1B78022BF9D0FFF72AF908BDC046F8240020F0240020F0B585B0061C0C1C151C154B154AD3585868FFF7B1F9C3071ED58423AE
:401DC000DB00114AD3585F68381C311C221C00F030FE01A98C80019735230B810B4A13785078000218430CF0D3FF002801D12C8005E000232B800120404200E0042005B004
:401E0000F0BDC0463404000064480100F8240020F8B5071C0D1C161C64225A43141C1DE000F064FF114B9B78012B13D10F4B00229A701A88AA4209D20D4B1968381C00F075
:401E4000F8FD0A4B1B88338000240AE000233380062406E0642000F07BF9643C002CDFD1103400F043FF201CF8BDC046A8120020FC2400207047C0460230800803D0013860
:401E8000FDD1C046C046C0467047EFF3108072B6704780F31088704782B0104B0093104B043301930F4B6A461A600F490F4A1160C0461B681B0F0F2B04D10A4B1B68FF20D3
:401EC000184008E0074B1B681B0F0A2B02D0054B186800E0002002B07047C046B6E90000AC1200200800104016000080040010400C4B0D4A1A600D490D4A1160C0461B68CF
:401F00001B0F0F2B04D1074B1B68FF20184008E0044B1B681B0F0A2B02D0024B186800E00020704708001040B6E80000150000800400104082B0104B0093104B0433019388
:401F40000F4B6A461A600F490F4A1160C0461B681B0F0F2B04D10A4B1B68FF20184008E0074B1B681B0F0A2B02D0054B186800E0002002B07047C046B6EA0000AC120020FF
:401F800008001040170000800400104030B5A5B0002323932293374B984265D8002963D0041C02A8802200F044FD334B9C4201D9324B00E0324B00937F230193314B6A467F
:401FC0001A603149314A1160C0461B681B0F0F2B04D12C4B1B68FF22134008E0294B1B681B0F0A2B02D0274B1B6800E000232393239B002B3AD1FFF748FF051CFFF74CFF80
:402000002290229B002B02D1FFF772FF2390239B002B1FD11E4B0093009B200418430090184B6A461A601B49184A1160C0461B681B0F0F2B04D1134B1B68FF22134008E0D7
:40204000104B1B681B0F0A2B02D00E4B1B6800E000232393229B002B02D1FFF76BFF2290281CFFF716FF01E004232393239825B030BDC046FF030000FF010000B6D70001CF
:40208000B6D70000080010400400008004001040B6D800000500008010B5041CFFF7F5FE07231C40E40404490B68044A134023430B60FFF7EEFE10BD00010B40FFFFC7FF23
:4020C00010B586B0041CFFF7E0FE0E4B1B6800930D4B1B680193033C0C4B1B5D02930C4B1B68039304AA0B4B04936B4605930A4B1A600A490A4A11601B68FFF7CAFE06B03E
:4021000010BDC04608010B4000010B40BC4E010030001040B6EA0000080010401700008004001040024B1B68012018407047C0460C002E4001BE7047034A13681B041B0CBA
:4021400002490B43136070470CED00E00400FA0508B5034B1B7A5843FFF78EFE08BDC046480F002010B5041C0F4A116801230B4313600E4A0E4B1A600E4A1368802109027B
:402180000B431360002809D100200CE00120FFF7DFFFFFF7C7FF002804D1013C002CF5D1102000E0002010BD60F02E400220000078002E4010002E4008B5FFF766FE044ACD
:4021C000136804218B43136030BFFFF762FE08BD10ED00E030B583B0FFF757FE041C0E4A13685B005B0813600C4B1B889BB20C4A13600C4A116804230B4313600A4D2B68DF
:4022000001930220FFF748FF30BF019B2B60201CFFF73FFE03B030BD00000B4052F1FF0F0C000B4010ED00E000010B4008B5FFF72CFE1F4A13689B009B0813601D4A136816
:402240009B009B0813601C4A13689B009B0813601A4A13689B009B081360194A13689B009B081360174A13689B009B081360164A13689B009B081360144A1368802109065A
:402280000B431360124B1B889BB2124A1360124A116804230B43136010490B68FF2293430E3A13430B6030BFFFF7F3FD08BDC04608000440080104400802044008030440E2
:4022C00008040440080504400806044000000B4050F1FF0F0C000B4010ED00E02C000B4010B50D4B1A6801218A431A601A68022082431A60094A10683024A043203C2043FA
:4023000010601068093CA043014311601A68802109060A431A6010BD00F02E4000FF2E4038B51D4B1B6801241C40002802D0012816D02BE0184B1968012291431960196805
:40234000022081431960154B19682E3081432038014319601968093881430A431A6018E00D4B1A6802218A431A600C4A10680725A8430143116011683020814310380143AA
:402380001160196801220A431A6002E00020FFF7D1FE201C38BDC04600F02E4000FF2E4038B5051C0078012404E000F009F8285D0134E4B20028F8D138BDC04600000000BC
:4023C000FEB5494652465B460EB407462E4909688A462E4A12682E48022100F073F903002A480068C0182A4900F06CF906001F3EB346234A126801219140C9430C000125C3
:402400000026FFF742FD814651460B6823400B6058460430FFF730FD3800F040284090400B68234003430B605846FFF725FD0136072EF1D900200130012090400B68234082
:4024400003430B6058460630FFF716FD4846FFF720FDC046C046C0460EBC894692469B46FEBDC046C046C046C046C046C046C046C046C046C046C046C046C046C046C046B4
:40248000600F00205C0F0020580F0020540F002000C20100C046C046C046C046C046C0460160704701607047324B1A781202324B1B781A43314B1B781B02314909780B43DC
:4024C00030498B4201D1072A06D0D42109018B4206D1042A04D102E02B4B042200E02A4B2A490B602A4B1A602A4B1B781B022A4A1278134380229201934202D0002B02D025
:4025000002E0264B00E0254B254A1360254B1B781B02254A12781343244A934205D0244A934204D0052B05D103E0224B02E0214B00E0204B204A1360204B1B681B09204A30
:402540001268AA2A15D1012B13D9164B1B780E2B0FD11C4B1B781B021B4A127813431B4A13601B4B1B781B021A4A127813431A4A13607047D9F0FF0FD8F0FF0FDFF0FF0F5C
:40258000DEF0FF0F580B0000580D00006C002E4074002E40DBF0FF0FDAF0FF0F0220000078002E40DDF0FF0FDCF0FF0F0F0F000005050000050F000080002E40EC0F00F038
:4025C000E00F00F06DF2FF0F6CF2FF0F84002E406FF2FF0F6EF2FF0F94002E4008B5FFF7B7FD08BD08B500F04BF808BD08B500F04FF808BD08B500F04BF8034800F02AF86B
:40260000032000F02DF808BDBD26000008B5024800F046F808BDC046BD2600000220FF307047C0462B2070472B2070472B2070472B2070472B2070472B2070472B207047BB
:402640002B2070472B2070472B2070472B2070477047C046014B18677047C0460000002010B5041CFFF711FC044A1368C0218B43A4011C431460FFF70CFC10BD0CE400E07A
:4026800080225201014B1A607047C04600E100E080225201014B1A607047C04680E100E010B5041CFFF7F4FF201CFFF7D3FF0320FFF7D6FFFFF7E4FF10BDC04608B512F0FD
:4026C00053F808BD002243088B4274D303098B425FD3030A8B4244D3030B8B4228D3030C8B420DD3FF22090212BA030C8B4202D31212090265D0030B8B4219D300E0090AF4
:40270000C30B8B4201D3CB03C01A5241830B8B4201D38B03C01A5241430B8B4201D34B03C01A5241030B8B4201D30B03C01A5241C30A8B4201D3CB02C01A5241830A8B42EF
:4027400001D38B02C01A5241430A8B4201D34B02C01A5241030A8B4201D30B02C01A5241CDD2C3098B4201D3CB01C01A524183098B4201D38B01C01A524143098B4201D363
:402780004B01C01A524103098B4201D30B01C01A5241C3088B4201D3CB00C01A524183088B4201D38B00C01A524143088B4201D34B00C01A5241411A00D201465241104671
:4027C0007047FFE701B5002000F0FCF802BDC0460029F7D003B5FFF775FF0EBC4243891A1847C04603460B437FD4002243088B4274D303098B425FD3030A8B4244D3030BDF
:402800008B4228D3030C8B420DD3FF22090212BA030C8B4202D31212090265D0030B8B4219D300E0090AC30B8B4201D3CB03C01A5241830B8B4201D38B03C01A5241430B2B
:402840008B4201D34B03C01A5241030B8B4201D30B03C01A5241C30A8B4201D3CB02C01A5241830A8B4201D38B02C01A5241430A8B4201D34B02C01A5241030A8B4201D3AC
:402880000B02C01A5241CDD2C3098B4201D3CB01C01A524183098B4201D38B01C01A524143098B4201D34B01C01A524103098B4201D30B01C01A5241C3088B4201D3CB0030
:4028C000C01A524183088B4201D38B00C01A524143088B4201D34B00C01A5241411A00D201465241104670475DE0CA0F00D04942031000D34042534000229C4603098B4246
:402900002DD3030A8B4212D3FC22890112BA030A8B420CD3890192118B4208D3890192118B4204D389013AD0921100E08909C3098B4201D3CB01C01A524183098B4201D389
:402940008B01C01A524143098B4201D34B01C01A524103098B4201D30B01C01A5241C3088B4201D3CB00C01A524183088B4201D38B00C01A5241D9D243088B4201D34B00E8
:40298000C01A5241411A00D20146634652415B10104601D34042002B00D54942704763465B1000D3404201B5002000F00BF802BD0029F8D003B5FFF715FF0EBC4243891A0B
:4029C0001847C0467047C0460E4B70B500251E1C0D4CE41AA410A54204D0AB00F35898470135F8E712F082FA084B00251E1C084CE41AA410A54204D0AB00F358984701352C
:402A0000F8E770BDF84E0100F84E0100F84E0100004F010030B50024944208D0035D651C0C5DA34201D0181B02E02C1CF4E7002030BD002310B5934203D0CC5CC454013365
:402A4000F9E710BD031C8218934202D019700133FAE77047005D0100B8000000F8B5054633480E460078002802D002242046F8BD002E5BD000242F49002D16D02A89D007D2
:402A80000DD02868002808D003881B3BE12B04D24088FB2801D81B2801D2012409E0900707D56868002804D1F7E70020088108604860002CDAD11F482F8907811C481B2109
:402AC000801D018041800421017119490020891C0870F80705D016480622801D2968FFF7A8FF1449B80703D56A681148127882700F480D46801D0860001F486002F0E8FAB7
:402B00000B48801D02F0D6FA28890EF02FF828890EF0A8F90346103300F012FC1F21C018890140180249308088809FE701249DE7640F0020C0120020FFB585B000276846C4
:402B40000E9D07734C481C460078002802D0082009B0F0BD10990F9801900095029105A807C800F035FC0028F2D16946264603AB84460873002C19D0002115E08A00B75AD5
:402B8000082F09D990198078002805D0083FB7521878401C187005E0002915D00027B75290198770491CC9B2A942E7D360460028CED10F9800280AD0109901F0A3FD0006FC
:402BC000000E04D00120C3E701208446EEE702F0FDF92948002101610C300599016021888180022D03D3A1798171A17AC17100211EE0481C19E082008B00A75AE65ABE467B
:402C0000BE4211D26F463E80B4461E190296B678BE7001967646E6521719029EBB78B3706646A652019EBE70401CA842E3D3491CA942DED3114800906846037B22460799DD
:402C4000069800F04DFC002882D168460A4C007B60700A4802F0EAF90028B4D1204607490C3007F099FD0028ADD107F0BBFD0028A9D1012121706BE7640F0020C0120020DF
:402C800010B507F0A7FD02F0A1F902F0EFF900F0B7FC00F0CFFC02490020087010BD0000640F002010B507F095FD02F08FF902F0DDF900F0A5FC0749074807F06DFD002864
:402CC00007D107F08FFD002803D1034A01210C3A117010BDC0120020700F002010B502F05FF910BD10B502F071F910BD10B500F07DFC10BD10B507490446097802200029F9
:402D000007D1204602F0BFF9002802D120460AF063FE10BDD410002010B502F05FF910BD1CB5FF206946087100200870FFF7DAFF6A4601A9062001F08DFA6946002008569E
:402D40001CBD000038B504460120002C20D0617801291DD800290BD0FF25E535FFF7C2FF0C4828180088C0B22070072803D00EE0FF25CD35F2E7002069460870684601F022
:402D80008BFB69460878012801D108202070002038BD000000102E40F8B504460120002C26D06178012902D92278092A20D8002905D0FF25E5352078092803D004E0FF255B
:402DC000CD35F8E708202070FFF78CFF2078114F114E08280DD0002000F01EFA70780128207810D00D4969180880FE2070700020F8BD012000F010FA0720B8810549203158
:402E000088800120F2E7B8810248217820308180EBE70000C0112E400010002000102E400121002807D005494A8842804A7842700978017000210846704700009E0F002008
:402E4000F8B504460120002C52D0217808294FD2617804294CD26088102166283DD800283BD065882348662D45801BD801270026BF020A2D33D90A212846FFF7A9FCC0B253
:402E8000072800D907200A2141438D4204D9691ACEB21F2E00D31F264101314339431648FFF7FEFA134D60786870217829701349496A8A0781001148920F11432430FFF7A7
:402EC000F1FA687800280CD0401E022181401820FFF76EFDC000083804E06180C1E72946DCE7B82081B204482030FFF7DBFA0020F8BD00009E0F0020B8102E4040F02E40A1
:402F000070B505460124FFF7EDFE002D04D0082128460EF077FE0024204670BDF7B582B069460AF05BFB050041D1FFF7DBFE6846008803F02DFD040038D004F0CAF8002859
:402F400034D0FF278820493700593E46002805D01849897A890601D5878AC68A204602F0A9FA01280DD006F0C7F850210A5B617902F058FF283081B233463A46204605F06D
:402F80005DFE20464030C28A04998A4200D9C182C18AA07805F030F80398012801D901200390A078039905F02DF900E00625284605B0F0BD28170020F8B50E4669460AF08A
:402FC0000DFB050033D1FFF78DFE6846008803F0DFFC040019D004F07CF8002826D01548F121807A0840C00621D520464030418A008A491C41430804C00C0F4986420CD370
:4030000026822079072802D011E006250FE001200870204603F0C2F809E0002E07D100200870A078002104F0C9FB00E002252846F8BD00002817002000100020F8B5012494
:4030400006460D46002925D013480078002808D0FFF748FE694630460AF0C0FA040003D018E000200880F8BD6846008803F090FC06000ED004F02DF800280AD00748F1216A
:40308000807A0840C00602D5308A288002E0022400E006242046F8BD00100020281700200121002807D0C221C1700321017001214170002181700846704710B501F0CAF9E6
:4030C000012801D101F0CCF910BDF0B589B015460F4606460124FFF705FE002E20D0002F1ED0002D1CD0102239466846FFF7A1FC1022314604A8FFF79CFC102168460EF054
:40310000A5FF102104A80EF0A1FF2B46102204A9684605F0A5FF102128460EF097FF0024204609B0F0BD000038B5FFF777FA01F0DBFF03211548FFF7B5F90120FFF74EFA13
:4031400012483038406A04218007800F084381B200900E480C38FFF7A5F9B8210C48FFF7A1F90B48032109021438FFF79BF9084C5321D83C2046FFF795F907210548FFF726
:4031800091F954212046FFF78DF938BD70F02E40D8102E4098142E407CB5FF24069E079D00280BD0002909D0002A07D0002D05D0002E03D0002B01D01B2B01D9012406E02F
:4031C0000096019505F07BFF042800D1002420467CBD7CB5FF24069E079D00280BD0002909D0002A07D0002E05D0002D03D0002B01D01B2B01D901240BE00096019505F082
:4032000017FF042802D0052802D002E0292400E0002420467CBD000010B50A4A141D012808D009491046FFF73DF908492046FFF739F910BD04491046891CFFF733F9034928
:40324000491DF3E788002E4031D000003AE3000010B5064A012805D01921C9021046FFF721F910BD1D21C902F8E7000090002E4001460120002903D0024A002012880A80D5
:4032800070470000E810002010B50122002803D011490B88984201D9012010BD14234968434359182039C9890C4B994208D0DB1E994205D05B1C994202D05B1C994209D140
:4032C000C108074B44075A5C640F0120A04082435A540022104610BD3011002003280000981D0020014608B5012000290AD0002003460090064A074800F0D8FA0006000E8F
:4033000001D0022008BD034A0121521E117008BD3DA800007910002010B5084C02202178012906D1607800F011FB0006000E01D0022010BD0021217010BD0000781000207E
:40334000134A1088810703D08107890F401A001D11791030484381B25088820703D08207920F801A001D800040180A494030098980B2CA0701D0503080B2890706D504495E
:403380005422091F09785143081880B2704700006A0F0020C012002070B504460120002C12D02368002B0FD0616800290CD0074D06222889208118462968FFF73AFB69680C
:4033C000606809780170002070BD0000C0120020FFB58446384F1C460020BB883F78054602460646002F11D100290ED0029999420BD36146002908D0002C06D00A99002992
:4034000006D02E4B0B99994202D2012004B0F0BD002144E0AB001F19BF78002F3BD0E35A002B38D07B43591889B22B0000F04AF8050410161C253100A7782388BC46FF2705
:40344000233BEB37BB4222D26346032B1FD322E0A388002B1FD0302B19D31CE02389002B19D0282B13D316E0A289002A13D01346134F233BBB420AD20DE0268A002A0AD0CE
:4034800033460F4F233BBB4201D2964203D901200EE0002001E000280AD16D1CEDB2099B9D42B7D31C2463435B1802998B42ACD89642AAD8AAE70000640F002079020000CD
:4034C000BAFF000030B47446641E2578641CAB4200D21D46635D5B00E31830BC18470000FFB583B0002469460C801F4606468C80002806D00598002803D004983043800724
:4035000001D0012467E0002FFBD03449049809888842F6D3FFF77AF8FFF768F800F06CFC002856D100F0CAFD002852D12C49084601F01CF905042D0C4BD12A480499066014
:4035400081800021C18007810C98007AC00704D0684601F054FD040007D10C98007A800703D501A801F054FD0446BF1DFEB2002C21D13146059800F089F804001BD10DF00D
:403580007FFC0406240E16D16A461088928808368518144AF1B29088D288AEB29319984207D3401B801A80B201F0D2FB050007D000E0FF25012400F0B7FA002D04D008E089
:4035C000F8B200F047F9F6E700F0DAFA06490120087000F023FC204607B0F0BD680F002079370000CC120020780F002010B503480078012801D101F04DFA10BD780F002074
:4036000010B500F0F9FD002803D100F00BFC002801D0FF2010BD0548007A801DC0B200F031F9034A0020107010BD0000CC120020780F002010B500F0FBFD01F0C9F804490C
:40364000002008608880C88008810249087010BDCC120020780F002070B5084B0446DA889E8800205518B54206D81D68AA182260DA885118D98070BD032070BDCC120020A0
:403680000148008970470000CC120020F0B587B007460D4600208900009006916846FFF7DBFF844600285DD1304800990160002117E02E4B88001A680629115406D22C4CA8
:4036C0000419667882185670628805E0C419203CA67A8218567022891B68C018491C4280C9B2A942E5D300242DE0601CC2B2059025E01E4FA30039689600581840887118D9
:40370000039604904E88B04217D938466F46FE80B6464F786E4677710297049F4F800168039F5E18767879184E700168764659184E800068029F18184770521CD2B2AA4299
:40374000D7D30598C4B2AC42CFD36046002809D168460699FFF780FF8446002802D1054900980860604607B0F0BD00007C0F0020204F0100800F00207047000010B5002807
:4037800009D005494A68002A05D0011F08788000105801F08BFA10BD7C0F002010B50446FFF76EFFC0B2801DA0420CD307484068002808D0A100405801F0EAF9002801D07C
:4037C0000470001D10BD002010BD00007C0F0020F8B516460D460446FFF752FFC0B2801DA04203D20020C0430090F8BDB2B2E9B2684601F0F3F90099481C03D0024AA00072
:40380000526811500098F8BD7C0F0020F8B50746FFF736FF801DC6B20A49002005460C680DE06178002907D06188B94202D32078FFF7B4FF002804D1241D6D1CEDB2B542EC
:40384000EFD3F8BD7C0F002010B5002801D0FFF795FF10BD70B506460948002504680BE06178002905D062882078121D0023FFF7AFFF241D6D1CEDB2B542F1D370BD000033
:403880007C0F0020F8B5084F064600243D6808E0287879688000085801F0B4FA2D1D641CE4B2B442F4D3F8BD7C0F0020FFB581B00A9C16002BD000F0F1F80546042826D0FD
:4038C000214F002C0BD02046FFF7A0FF2901C919486000281BD022460499FFF7AAF81A4928010E5046187481019805707D20029CC000444300F0C0F8009004280AD000F0F7
:4039000071FAA0420ED800F06DFA201A06E0FF2005B0F0BD204600F0CBFA0020B08135720020F5E700F05EFA074600F0D7FA381B87B23846012100F00BF9009801010248F3
:4039400008188781E6E70000D8120020F8B5060117483418217A042903D0A089002802D018E00020F8BD00F03DFA054600F0B6FA00F0A2F804280DD001010D480F18B889FA
:4039800041198DB2002100F0E3F80020B881284600F08EFA6068064D002801D0FFF754FF042020720020A8516081A081D9E70000D8120020FEB500266A46304601232549BA
:4039C000050169180D7A042D02D0898900291BD000211154401CC0B20428F0D300246846005D002830D01B4821010818418947680568029100210160416004224181027259
:403A00008181002E02D015E01354E3E700F054F804280ED001010F480818019086890021304600F095F8019800218181304600F03FFA0126002D07D038460299A847002F2E
:403A400002D03846FFF700FF641CE4B2042CC6D3FEBD0000D81200200EB5002005216A460090118150810348694600680EF0A9F80EBD0000840F0020074A0020010189181E
:403A80000B7A042B02D08989002903D0401CC0B20428F3D370470000D81200200549002002015218127A042A03D0401CC0B20428F6D37047D812002030B50A4B04200A4C51
:403AC00000210A011219157A042D06D09289002A03D09A4201D808461346491CC9B20429EFD330BDFFFF0000D812002070470000F8B500250B4F2E462801C419217A04297C
:403B00000AD0042121723E506068002802D0FFF79BFE66606681A6816D1CEDB2042DEBD3F8BD0000D812002030B50020074C05460423020111190B72A5504D60401C4D812A
:403B4000C0B28D810428F4D330BD0000D812002030B5094C00231A011219157A042D04D09589002906D02D1895815B1CDBB2042BF1D330BD2D1AF7E7D81200200020704742
:403B80001CB5002469460C70142001902346054A05480EF01BF804480068401C00D1FF2420461CBDFD3B0000840F00203EB5124A0146FF2000230124126800290DD0012935
:403BC00014D0042908D104206946009308814B8110460DF0F6FF80B23EBD6846009304814381694610460DF0E7FFF4E768460093048143816946EBE7840F002070B54589AD
:403C00000468416800890300FFF75CFC08280509091E22282628002005F0D0FC1EE0022908D0C8B22A4621460CF02CF92046FFF70BFE13E002202A4621460CF023F929466C
:403C4000204600F00DF809E000200DF0A1FC05E02046FFF7AFFE01E0FEF7FAFC002070BD014B0022DB681847880F002070B5448905680089022803D0032809D0FF2070BD43
:403C80002246094C0023A46829460120A04708E0FFF728F8241DA2B200232946022006F02CFC002070BD0000880F002070477047024800214160018041807047880F00200E
:403CC00070B50C46002186B016460391012802D0022859D116E003A9012006F06EFC01281BD1039D324621462846FEF7A2FE0095287801900220694608814E816846FFF76A
:403D0000B5FF41E0214D002B686809D0049004A9022006F052FC01281DD0022006B070BD002812D0298840182146FEF782FE28880024801980B228806988091D884206D1BC
:403D40002C801348FFF792FF03E00320E6E788421AD96C6018E004986860E278A378110219430B4A698000231060E3565360032313815181A1788170E178C17061784170B2
:403D800021780170042028800020C7E7880F0020181300203EB515460C46022803D004280CD000203EBD0091019002206946088107484A8100680DF004FF07E00CF062F862
:403DC000044B0022DB6829462046984701203EBD840F0020880F0020014AD16090607047880F0020034801688068081A0A214843000970472413002010B5FEF7FBFB482256
:403E000004490548FEF715FE03490120C870002010BD00003C4F01002817002010B5FEF7E1FB10BD0020704770B5134C2368002B08D0207B1149C20705D040084000207369
:403E40008868A08070BD88680B4AA18880B29268814203D90A4D691A091802E0814202D2411A5118A160A080A0689842EAD30DF0C5FE00F013F870BD24130020C0102E4057
:403E8000FFFF000010B508461946FFF7A5FF10BD704710B5FFF77EFF10BD000003480021016041608160C1607047000024130020024610B5FF20002A0CD0FFF7EFFF064C89
:403EC0000321207B0843207310010A21FEF780FC2060002010BD00002413002000B504480A21806848430209FFF7D8FF104600BD241300200248007B8007C00F7047000001
:403F00002413002010B544490868002802DA434B01221A70022290430860414800693E49C00B4031096A08425ED0012000F0D0FA3B483C497C30FEF7B5FA37480E216C30AD
:403F4000FEF7B0FA364820218430FEF7ABFA344814219C30FEF7A6FA3148FF21C131A430FEF7A0FA2E48FF212F31B030FEF79AFA2B482D49BC30FEF795FA29482B49AC301C
:403F8000FEF790FA29492648491CB430FEF78AFA23482749B830FEF785FA21482549CC30FEF780FA1E4824490830FEF77BFA1C482249A830FEF776FA194821498830FEF76E
:403FC00071FA17481F498C30FEF76CFA14481921C9029030FEF766FAFEF766FAFEF71EFBC0B2022802D00FE0FF2010BD16491748FEF758FA15481649001DFEF753FA1348DB
:4040000000210830FEF74EFA54200449C043891C0870002010BD000000F02E40980F002000002E4055650000320300002F3F00003102000010520000EC160000FA12000089
:4040400031D000003AE300009956000080012E40F80F000070B50646581C80B245086D00002408E0304600F0C1F81055000A1119A41C4870A4B2AC42F4D3D80705D0D01889
:404080002038D15CC47FD454C17770BD30B50A4C002100195B1E07E0541864782502545C2C430480891C89B29942F5DB994201D1515C018030BD000000102E4010B5FF200F
:4040C00000F006FA0F49FF2048700E481021801D41800121417001700A490020C91C4870FFF710FF04000AD100F01AF907210648FEF7D6F9044807211830FEF7D1F9204666
:4041000010BD0000980F0020CC112E4070B5002405465B1E0AE0284600F068F8010A161971702D1D1055A41CADB2A4B29C42F2DB9C4203D1284600F059F8105570BD00000E
:4041400070B500210A4D5B1E0AE0541864782602545C344346193480001D891C80B289B29942F2DB994202D1515C4019018070BD00102E40F0B50599091FCFB200217E1E35
:404180000BE0541864782502545C2C43164D45192C80001D891C80B289B2B142F1DBFC0712D01C78515C24020F4A0C4381180C809C785D78001D210280B22943841821800E
:4041C000001D80B2D9780CE059781A7809021143054A84182180001DD9789B78090280B2194380180180F0BD00102E40014940180088704700102E4010B50B490020487037
:4042000000F08EF80020FFF707F80020FFF720F807210648FEF744F9044807211830FEF73FF9002010BD00009B0F0020CC112E4010B506480078012803D102210448FEF746
:4042400031F902490020C91E087010BD9B0F002070F02E4010B50B46062812D006DC01280CD0032801D1FFF7C7FF10BD0A28FCD00B28FAD105480078107010BDFFF71EFF31
:4042800010BD1146184600F039F910BD9E0F0020F8B5204DAC6A0127A0071F4E002816DA307806280ED1286A384328621B480069F903084381B219481030FEF7F3F8042005
:4042C00000F006F9134802212830FEF7E9F8E00711D0062000F0FCF80F49FF20C91E48707078002802D1686B38436863094801212830FEF7D5F8E0050BD53078042802D146
:40430000052000F0E5F80348FF2101312830FEF7C7F8F8BD40F02E409B0F002000002E4010B503212348FEF7BDF80120FEF756F920483038406A204C80076178800F890096
:4043400001431C480C38FEF7ADF86078002808D0401E022181401820FEF72AFBC000083800E0B82081B21548FEF79CF81348032109021438FEF796F810481149B830FEF792
:4043800091F8612189010F48FEF78CF80D480321001FFEF787F80C490C48FEF783F80B480B496038FEF77EF8084801218838FEF779F810BD70F02E409E0F0020D8102E4073
:4043C00090890000041E2E40FF0F000058122E4020900000044800684007400F022801D0002070470120704700010B4000B5FFF7F1FF002805D009480168C908C9000160F1
:4044000000BD0748016A490849000162054801690122D2039143016100BD000000010B4040F02E4000002E400849087806280BD148780749002803D1486B40084000486341
:40444000C86A01221043C862704700009B0F002040F02E4001480078704700009B0F002002484078022800D001207047980F002000B50300FFF726F8080D050D0B0705075D
:40448000090D012000BD032000BD042000BD022000BDFF2000BD0000074A9168D26889B2064B92B2994204D105498A4201D1012100E000210170704780002E4033D0000060
:4044C0003FE3000001494870704700009B0F002010B50446FEF78AF8072C01D9FF2C01D102480470FEF77EF810BD00009B0F00200149487070470000980F002070B50C46D0
:404500000546FEF78BF8C0B202280E49287804D0FF2810D04C280CD810E0FF2809D10A4AD0680004800F032801D0087807E09069000A553803E00878207070BD4F382070B8
:40454000087070BD9A0F002000002E40F0B50122002830D000292ED00424420600D00524792342065B06D21800D0641C034600221EE00C2516466E43104D00277519AF7286
:404580000E4F002ABB51696007D0661EB24209D10B4E86197606760E05E05E06760E8027BE1B00E080269B198919521C2E81D2B2A242DED300221046F0BD0000B015002015
:4045C00079020000074900200C2242435218927A012A05D0401CC0B20628F5D30020704701207047B0150020F8B50F000446164609D0184D18496868A04202D94018A04287
:4046000001D38E4201D90120F8BD39462046FEF701FA00281BD0324639462046FEF709FAF0B200210C224A43521913895668F718A74208D90127A41B1B1B9772834206DA02
:40464000C01A1469C0B2491CC9B20629EAD30020F8BD0000B01500207902000010B500F061F80748054AC16806480C46FEF7E1F904492046FFF76AFF10BD000079020000D2
:40468000A40F00203413002010B500F04BF810BD002070470020054A002902D0012902D002E0506000E0906000207047A40F002070B5084C154608460549A26889182A4627
:4046C000FEF7B7F9A0684019A06028B270BD000034130020A40F00203EB50A226946FFF7E7FF044606480A2200686946FEF792F9002802D00020C0433EBD20463EBD0000F5
:40470000A40F0020002802D0044A914201D2FF20704703490A61C8600020704779020000A40F0020024800214160816070470000A40F002070B5074C1546054862688018E5
:404740002A46FFF751FF60684019606028B270BD34130020A40F002010B503490A220968FFF7E8FF10BD0000A40F002010B50F4A002313600E4A13600E4B18600E4801602F
:404780000E49012008600E490860000290600E490C4808600D4914300860FF381538506000F0BEF800F0CCF9002010BDD00F0020B80F0020E40F0020E80F0020D40F0020C4
:4047C000C40F0020F8160020C80F0020DC0F002000207047014610B50020002910D0094B1A689C685118A14209D25868196080188A0704D08A07920F891A091D196010BD12
:40480000002010BDB80F0020F8B50024164E671E321F3D463168136806E01422624310328A58521C1BD0641C9C42F6D36A1C14D02C461422544322460C3288500C214843BE
:40484000FFF7C8FF3168002808510AD031680020103408517068401C70602846F8BD2546E4E73846F8BD0000C80F0020F3B50026F64381B000281BDB1E490968884217D8C3
:404880000299002914D01B4F142204463F1D54432546396810354859401C09D0FDF7A6FE38682F1F4159C359994203DBFDF79AFE3046FEBD214608310091465801590C2045
:4048C000704308180C220299FEF7B3F80948761C001D0068C159B14200D100260549009A091D865008684159491C4151FDF77AFE0020FEBDC40F0020002803DB074909682A
:40490000884202D90020C043704704491422091D096850431030085870470000C40F0020F0B500200D4A451E0346171F50600FE014260146714314680E1DA3510C461668C4
:40494000083433511668083435511468401C635039688842ECD30020F0BD0000C80F0020F3B50026F64381B0002841DB2349096888423DD8029900293AD0204F14220446C9
:404980003F1D54432546396810354859401C2FD0FDF72CFE3868415900292BD0211D009146580C21005971430F46C1190C220298FEF73FF811480021001D0068761C005987
:4049C0000C34C0190160416081600C48001D00680159B14200D100260849009A091D865008684159491E4151FDF7FCFD0020FEBD3046FEBDFDF7F6FDFAE70000C40F002000
:404A0000FEB504460D4600201E49089E0860471E009001900290002C11D0486885420ED2002A0CD0002E0AD0642E08D808460C3001681C2068430C18207A002801D0384686
:404A4000FEBD0120226020721846FFF7DDFE6060401C13D06681A6810A4827610C3067610179A94200D205710021684601810A462846029B00F040F82846FEBD00202072D0
:404A8000DDE70000D00F002038B50124009400F039F838BDFEB50027164EFF433D4600240EE01C20316860430818017A002906D04068FFF721FF002801D0254603E0641CCB
:404AC0003079A042EDDA681C12D01C2130684D434419FDF78BFD69466068FFF741FF0546FDF780FD002DD9D1216868468847D5E7FEBD0000DC0F002038B50024009400F063
:404B000001F838BD1FB500220C49541E0A60002811DB496888420ED808491C220C31096850430818406801A9FFF7A0FE401C02D0002004B010BD2046FBE70000D00F0020FF
:404B4000F0B50021114A4D1E174611710C3F0B46BD6016E008461C2460431668041D355114680646235014680836A3551468361DA353044616680A34335318301468491C5E
:404B8000255078688142E5D30020F0BDDC0F002038B500210091002811DB0F49097888420DDA0D4D04010C3529680859002807D0201D0818694600F06FF9002801D0002002
:404BC00038BDFDF713FD28680F34015D491E0155FDF708FD009838BDEC0F0020F7B582B0002502986E1E06602E48D21C024017462D4A2C4610460C380178106805E023011E
:404C0000C358002B0FD0641CE4B28C42F7D3711C28D03401211D40180191039900F02AF900281FD101E02646F1E71F48016820460C300F521C480399026820460E3011548D
:404C400019480399026820460F3011540398784300F0A0F8144900280968085102D00024009011E001251AE00F48016801980818009900F02CF9002801D0012502E000983F
:404C8000C0190090641CE4B203988442ECD3002D05D10298066004480179491C0171284605B0F0BDFCFF0000F80F0020F8B50D4600216A468C461180002839DB2349097866
:404CC000884235DA214B04010C3319680A59002A2ED020460C300B5A801C0E5C184670438018954224D3854222D2002006E007465F43BF18AF4206D0401CC0B2B042F6D3C4
:404D00006046002814D0114E271DC8190C366A46294600F006F900280AD168460088012808D030682946C01900F0D1F8002803D00120F8BD0020F8BDFDF758FC30680F3451
:404D4000015D491C0155FDF74DFCF3E7EC0F0020F8B50F46002400F031F8002817D10C4900220B460C334A600EE021011D680E466A501D680C36AA53B61C1D680F31AA55EB
:404D80001D68641C6A54E4B2BC42EED31A71F8BDEC0F002000280BD0C01C074A81085068890053884118994203D89368516018187047002070470000EC0F0020F8B506461E
:404DC00000200F4D009029700C0121466846FEF743FC00280CD129460C3100980860301B001F84B221466846FEF736FC002801D0FF20F8BD6C800098A8600020F8BD0000FD
:404E0000EC0F0020F8B5002827DB19490978884223DA174C05010C342168485900281CD028460C30085A009028460E300E5C401C0E5420682F1DC01900F064F800280CD181
:404E40002068002445590EE0094829460C300068C01900F03CF8002801D00120F8BD00982D18641CE4B2B442EED30020F8BD0000EC0F002030B50D4604000BD0A800FFF77B
:404E800089FF6060002805D000202570C0436080002030BD012030BD70B50D46040005D0002D03D00220205E002801DA012070BDFDF79CFB0221615E6068890040582860DA
:404EC0006088401E6080FDF78DFB002070BD70B50D46040007D0002D05D002212078615E401E814201DB012070BDFDF77FFB6088401C00B26080616880000D50FDF772FB5E
:404F0000002070BD10B5040009D0227800216068FDF798FD0020C0436080002010BD012010BDF0B500231D46002802D00224045F0AE00120F0BD46689F00F6598E4201D1F4
:404F4000012503E05B1CDBB29C42F4DA15700020F0BD00000148007870470000001000207CB505460024FDF7BDFEA8796946087000A8062229460130FDF75BFD002168465C
:404F800004F0E2FD0C2804D0072804D01F2804D004E0022402E0042400E0272420467CBD10B502280BD0032802D0042809D102E000F0E8F805E000F093F9FF2801D100F051
:404FC000A3F9FFF747FAFFF753FA10BD10B500F0CBF9FFF73FFAFFF74BFA10BD70B504460025FDF77FFE002C06D0A079012803D8214602F06DFC00E00125284670BD014650
:405000000120002902D05020088000207047000001460120002905D0034854220078504308800020704700000210002010B502460D49FE204870032410460DF0E5F800280A
:4050400010D10DF089F800280CD105F013FB002808D100F093FB002804D104F0F9FF002800D10024204610BD0010002010B5FF240DF042F9002804D10DF05CF9002800D179
:405080000024204610BD70B50025044600280ED0A07901280BD8FDF725FEA0790028204602D002F0F1FF03E002F0C6FF00E00125284670BD014610B50120002904D00622DB
:4050C0000248FDF7B6FC002010BD00000410002001460120002903D00878024908700020704700000210002010B5002403F0FAF8002800D00124204610BD000070B50E4658
:40510000050001D0002400E00C4C002C11D0E28A500609D5D107C90F022003F053F8E08A40218843E08204E0D107C90F012003F049F83146284602F027FD70BD90170020B0
:40514000F8B50546002004460D4E009013E022466946284601F04AF80098002801D00DF035F8A878214602F0FDFAA878214602F0EBFA641CE4B2308AA042E8D8F8BD000087
:4051800048180020FEB54E4DFFF764F9012849D14C480078002845D002F07EFC002841D004F04AF900283DD0474C6078C00703D000F0E6FC012835D0207E00287DD1607840
:4051C000002600285BD0000706D540488089070B00F02EF9384370D13B484178684603F095FF044628793A4DA9784018C1B2A14261D802F051FC00285FD0344860300089C8
:40520000314F0190203702F09DFA6846008802F0C7FA02F057FB2F490988884203D10120FFF756F949E02C49012008702648807B00281BD00198002818D04037F87E0028D2
:4052400014D12248603000884000A0420AD96878002807D102F0E4FF2049088A03221202104308822878002800D02E7002F0C6FA0120FFF727F900F0F5FB174C15E002F0B3
:405280000BFC002819D0102402F01CFB214602F011FA02F085FA104C0120207002F0AEFA0020FFF70FF900F0DDFB20780128B6D1FFF79CF826700020FEBDFF20FEBD00001A
:4052C00068170020980F002070170020A0102E4010100020221000200A100020E0112E4010B50848FF244078002809D102F0D4FB012805D1FEF79CFF0720FFF7E9F80024F4
:40530000204610BD7017002038B5FFF7A3F8012801D0002038BD02F0BFFB00280AD0114C6078C00703D000F02BFC012802D0207E002801D0FF2038BD617800290FD068463D
:4053400003F0E4FE022806D96846008802F028FA012002F059FA0320FFF7BAF8D9E70020F7E700007017002038B51E4CFFF772F8042813D0052811D0062812D003282AD066
:4053800007280AD100206946087002460120FEF761FFFFF75FF80128FBD138BD00F082FB38BD02F049FA00F07DFB02F0C5FA8007800F0228F4D10C4841880029F0D05B2170
:4053C000095D0029ECD101210170A07D0140022002F0F8FE38BD02F033FA0120FFF778F838BD00009017002010100020F8B50646002402F055FF0546304602F06BFF034606
:405400000A480021068A0DE001228A401046174628401F40002803D0002F01D1224394B2491CC9B28E42EFD82046F8BD4818002070B500252C460A4E03E0002C01D0002048
:4054400000E030460079002803D02046FFF7CEFF0543641C2406240EEFD0284670BD0000901700201CB50020694648706846FDF769FC01AA69460A20FEF7ECFE694604205F
:4054800008561CBD10B50C4601F082FA002809D00179002906D0C1788078224602F0FAFB002010BD022010BD0148007870470000681700204030C07E002800D001207047C6
:4054C00000B500F001F800BD8C2148430749084A40186030417F491CC9B24177D289914201D300214177C8B270470000701700204818002013B501F04BFA04000BD001F036
:40550000E8FD002807D0214601AA0A310620FEF7A1FE00201CBD02201CBD000010B50C4601F036FA00280AD001F0D3FD002806D0224604490A20FEF78DFE002010BD022025
:4055400010BD000051170020F3B581B0074601460026029802F09CFE0446002F01D0002500E0154D002D21D0284601F047FA032C04D13946029802F0E7FE06463846029955
:4055800002F0E2F8032C06D0002C10D00121384601F03AFB03E03146384603F0D1F8284601F0C0FF0221284601F0D6FFFEBD3846029902F0C9F8FEBD9017002010B5044627
:4055C00003F008FD002801D00C2010BD2078611C02F062FCFF2801D01F2010BD02F0A8FCFF280AD02178621C02F036F8044821780068026B601C904710BD072010BD0000BC
:405600002810002010B503F0E5FC002801D00C2010BD02F023FC03480068C06A8047002010BD00002810002070B50D46044610210CF00CFD1021601806460CF007FD334627
:4056400010221946204603F00BFD102130460CF0FDFC02202870204604F052FC70BD0000F8B504464078217802028006870FE0781143A67809050002090D0643084601F02D
:4056800087F900210546F2B2002812D0002C10D0022F0ED0032F0CD0002A0AD00279092A07D0002A05D0134A5A23527E1B5C9A4207D82889002104F058FB20460CF086FDC5
:4056C000FF21002914D10C48224600682946436930469847C0B2FF280AD128464030817EF2B2491C8176FF232146284600F0DDF8F8BD000028170020401000200020704780
:4057000010B5044603F066FC002801D00C2010BD2078611C02F0C0FBFF2808D002F0F8FA044821780068426B601C904710BD1F2010BD00002810002010B504F089FC00F0C2
:4057400057F9002010BD10B5044600786178E2780843A17811430843217908436179084305D003F029FC002803D00C2010BD122010BD204602F088FC002010BD10B5FCF7C4
:405780004DFF02F0AFFD044803F0AAFD02F0CAFA012000F003F810BD38170020F1B586B003A8009005A8019025489F22817A114081726846FDF7F0FD00283FD16946098951
:4057C000C90705D01F4806990068C2686846904769460989890706D500282FD11A480068816A06988847002828D1184E0025757075737571F575357675767575B570F5701E
:40580000B5713746F5730120BC3738731F20F880FF2130467972A0300175457500F076FA00242046069901F0FFFB002803D1641C2406240EF5D0FD72BD72B57307B0F0BD2B
:405840002817002040100020281000207017002070B505460E46084602F022FD0446304602F038FD0121A9400A46224001400A4301D0012070BD002070BD10B5044608463C
:4058800002F028FD0121A140014201D0012010BD002010BD10B5FEF7DDFD032804D101F0CFFF0120FEF714FE10BDFEB51C4616460F46054601F036FEA878FFF701FE024604
:4058C0000190334639460094284600F00DF8002808D1A8780199FFF711FCFF2C02D138460CF074FCFEBD0000FFB585B005460E980C46FF2810D02B49C00009680A58401835
:405900000179C0795278814201D9012601E09006860F6846038108E06078A1788006860FE0780002014368460181284601F0DCFB070007D021462846079A00F0EBFB384648
:4059400009B0F0BD304600F099FC04AE0346039002AA29460096204600F025FB3C20405D002818D0284601F0BFFB012813D0684600890096C0B20190A878231DFF220799F2
:4059800002F0B6F868460089039BC2B2A878079902F0F6FBD3E7684600890021C0B20091E9E700003C100020F8B5104F002500242846FFF71BFD060012D00EE03046E040CD
:4059C000C007C00F07D02146284601F0B3FE21462846FFF7B9FD641CE4B2388AA042EDD86D1C2D062D0EE2D0F8BD00004818002010B502F097F90020FFF7D0FE0CF07CFC46
:405A0000002010BDF8B5002400F0B4F80123012800D10124104F00203E4620360425082203E0002801D0002100E031460979002907D001290BD002290BD0114681402143C0
:405A4000CCB2401C0006000EEBD07C70F8BD1C43F7E72C43F5E700007017002010B5FFF7D1FF10BD70B50E4CFCF70FFA0546FEF7F1FC062802D02078012803D02846FCF7B8
:405A800008FA70BDFCF798FB2846FCF702FAFEF7E1FC0628F5D020780028E5D170BD00000A10002010B5FCF7F0F90446FEF7D2FC012809D0FEF7CEFC022805D0FCF77CFB5A
:405AC0002046FCF7E6F9EEE72046FCF7E2F910BD10B50B4681791943817103D08078114602F01CFB10BD10B582798A43827102D1807802F027FB10BD30B50C4C0220A28A8B
:405B00000B4B9978002901D0022906D11D785B78EB18282B01D9032002E0032900D101205105490DC0020143A18230BDC0112E400B10002000B500F023F8002807D0012823
:405B400005D0032801D0042801D0002000BD012000BD014600B50020C90701D000F00AF800BD014600B50020C90701D000F002F800BD000001480088000A704720102E409C
:405B80000448008B410501D5042070474007800F7047000000102E4038B50446000610D5FFF7EEFF01280CD1684601F059FE6846007800F0B3FA012001F01CFD0220FFF705
:405BC0004DFF0348006801692046884738BD00002810002010B5034A0178117002F0C0F9002010BD0B10002070B50446FFF7C2FF002801D00C2070BDA27B01211F48002A93
:405C0000827801D00A4301E05208520082706279012A14D0C17849084900C170184D2868016820468847207901280CD06188208803F000F82080207904280FD015E0C278BF
:405C40000A43C270EAE72868C168E01D8847E01D02F006FA0B48808C208006E02868C168E01D8847E01D02F0FBF9074920798870204602F083F9002070BD0000701700206A
:405C800028100020281700200B10002008B50178FFF770FF814201D10C2008BD002914D0072069460870FFF745FF012807D10121684600F08BF8012801D0092008BDFFF71A
:405CC0001BFF02F08FF9012011E0FFF733FF012806D1684601F0C4FD6846007800F052FA02F076F9FFF746FF0028FBD10220FFF7B5FE002008BD000010B5034A0178517088
:405D000002F0ECF9002010BD0B10002038B568460CF0F2F9002801D01F2038BD01210098C90201804180002505714571857107214173857302F022F9009C20220021204661
:405D4000FCF780FE25702A460021601CFCF77AFE204602F005F9204602F0C0F900980CF035FA042200210248FCF76CFE002038BD0B1000200346084800B5834209D81846EB
:405D800000F006FE002804D00089984201D1012000BD002000BD0000FF0E0000074A9179491C8906890E917138220A4092014907090E1143084302490840704770170020E0
:405DC000FF0E0000C006C00E70470000F8B507460E4600240D4803E0002C01D0002500E005462979002905D0641C2406240EF3D00020F8BD0021204601F016F92E712046B4
:405E0000FFF7CCFF28813C700120F8BD9017002010B503F071F90222002100F003F801F02DFF10BD10B5094B40074907000F090F185A595A40185043C0086421FCF7C8FC88
:405E4000002800D1012080B210BD0000844F0100F7B53D20405C88B015460C46002802D02878042802D200200BB0F0BD6946087200262046FFF71EFB012800D0012620463F
:405E800003A938300191009023460327A17E34333246206A03F03EFA02A8089900900B46019120463A4603A9243003F0A1F802466846007A2870204601F0A2F81046D3E72D
:405EC000FFB587B00C4605461078694608723D20005D1746002826D000262046FFF7EAFA012800D00126204603A93830019100902346A17E34333246206A03F00BFA02A87F
:405F00000090291D019120462B1D03A924300A9A03F06EF802006846007A388002D1204601F06EF810460BB0F0BDF0B505463C20405C89B016460C4600280CD030786946F4
:405F40000873002806D000272046FFF7B3FA012803D003E01F2009B0F0BD012703200890204604A93830019100902346E17E34333A46E06903F0CEF96846007B03A92818AD
:405F80000290009120462B46019504A92430089A03F07AF802466846007B3070204601F039F81046D7E7FFB505463C20405C89B016460C46002810D0084601F095F80128C1
:405FC0000BD0308869468883002809D000272046FFF770FA012805D005E000200DB0F0BD0220FBE70127204603A93830019100902346E17E34333A46E06903F08BF9291D7C
:406000002B1D07A8129A6D4607C5204603A924300C9A03F039F802466846808B3080204600F0F8FF1046D9E770B50D460446FFF741FA01280AD0E87AA97A00020143A07821
:4060400001F008FD012808D0002070BD00222421204602F041FD242070BD28214C200155204600F0A3FB282070BD0000002801D0002000E003484030C07F012800D00020EE
:4060800070470000901700200146002049070ED50021084B03E0002901D0002200E01A461279022A04D0491C0906090EF3D0704701207047901700200146002049070ED54C
:4060C0000021084B03E0002901D0002200E01A461279022A04D0491C0906090EF3D07047012070479017002010B5044680346068002803D00CF07EF80020606010BD4030A9
:40610000417070474030817070474030017070470171704792001018C166704770B53C2501F080F9040004D020460021433001F031FCFF222946204600F0D4FB002C02D0F3
:40614000A07801F0F1F870BD10B5002801D0002000E00348002802D0008903F04DFE10BD9017002010B5002801D0002000E00448002804D00179072901D100F047F810BD24
:406180009017002010B501F04DF9002802D0807801F0CAF810BD00207047000070B50546008A00281ED01049F122897A1140C90618D5294640314A8A098A521C4A4392B2C1
:4061C000D10800D10121540801E0621A94B2A042FBD9FEF7BFFE012804D1298AA878224601F00EFD70BD00002817002010B50023054C0B60248A944204D992001018C26EBC
:406200000A60C36610BD00004818002038B5044600200090A079002814D14020015D052901D00E290ED168460BF076FF002809D12046009902F02EFC03481021C28A204635
:40624000FFF746FC38BD00002817002010B50B4604460146184602F0ABF8002802D020460BF0BEFF10BD13B5044601AA11460620FDF7F0FF6846818861811CBD002800D18B
:406280000220704770470000F8B504462346401D543300909A1EA078911E01F0FDFA25464035A88A298A8000FCF792FA401E81B2688A884203D96982A07801F0BDFF204610
:4062C0000021433001F066FB27480088E88102F013FFE989891C8AB26179FFF7A3FD01F0CDFC02F009FF2A8A6179FFF79BFD074601F0B8FC688A002806D01C49088A0322C3
:4063000012021043088202E0002001F089FF1748803801886E8A002E0CD0304648431449FCF746FB0004000C01D0401C80B21149488002E00F4800214180288A704381B279
:40634000A07801F0D9FEFF2228374932B9B21346204602F073FCE98AA07801F04DFEA07801F012FAF8BD000080102E40E0112E4071020000101000207FB50446803461681B
:4063800005460E46183108226846FCF752FB31462031082202A8FCF74CFB102168460BF055FE6068102108300BF050FE60682B46083024331022694602F052FE7FBD10B574
:4063C00004460821FFF78FFB10212046FFF78BFB207905281FD006281DD008281AD12189002003F081FC072020712046FFF762F8014620464030012913D00E210170002119
:406400000176204600F0A2FF2046FFF76DFE2046FFF7C4FE10BD20890122002103F048FCE1E70521EAE70000FFB581B01F4604460821FFF758FB10212046FFF754FB2079DE
:40644000082803D0092804D0042203E00422012501E009220025204600F032FE264600204036307022712046FFF73EFE0398002D02D0012808D00BE001280AD120890022E6
:40648000029903F015FC04E02189029803F02CFC012700203076012F04D0204600F056FF05B0F0BD02983073204602F041FB054605480121C28A2046FFF70AFB002DEFD1D6
:4064C00009202071ECE700002817002070B50C460546FEF7EFFF012809D108212846FFF702FB0023012221462846FFF79DFF70BD10B5044600F0E4FD2046FFF7F5FD002155
:406500004034217010BD70B505461A24FEF7D2FF012809D108212846FFF7E5FA0023012221462846FFF780FF70BD0000F8B50446002000900E4668460BF0EEFD002801D061
:406540000D20F8BD8420005908212030009D00F01AFA20460421383000F015FA002E02D1204600F0E9FD2946204602F022FA0E480821C28A2046FFF7ABFA204600F057FF98
:4065800025464035002808D0204600F023F8002801D0092028700020F8BD08202870204600F0C0FFF7E7000028170020014610B540310A460978082906D0092907D00A2958
:4065C00001D100F091F810BD0B20107010BD00F001F810BD70B50446007925464035052805D0062803D008280FD00C2070BD03220621204602F070FA0D480821C28A2046E4
:40660000FFF766FA1120287010E006202873204602F08EFA0646AA8A0A20424301212046FFF756FA002E01D109202071002070BD2817002038B504460020009068460BF0B7
:406640006BFD002801D00D2038BD2046009D00F0B1F908202071204600F06EFD2946204602F0DAF900213D2001550F2040210855204600F057FF002038BD00B5024600F077
:406680001FFD10214032117000BD10B50446FEF711FF012809D04020005D112805D100231A4606212046FFF7BFFE10BD10B5FFF786FE10BD38B504460021684600910BF0CD
:4066C0002BFD00280CD12046009902F026FA05480821C28A2046FFF7FBF90D204034207038BD00002817002038B504460021684600910BF011FD002801D00D2038BD2046A4
:40670000009902F0FFF905480821C28A2046FFF7DFF90C2040342070002038BD2817002000787047F8B50025002801D0002400E01A4C002C28D0204600F0CBFC002823D07C
:40674000207903281CD005281CD026464036B18AA07801F0DBFCB078012815D10021204601F043FE274680373868002802D00BF041FD3D600020B0702079072805D007E00B
:40678000042000E006202071F8BD2046FFF706FD0221204600F0E0FEF8BD00009017002010B54C22115400F04CF810BD10B50446FF21FFF798F909202071A07801F0CCFC5D
:4067C00010BD000038B5FF216A461180002801D0002400E0084C002C0DD011460620FDF739FD684601882046FFF73DFD03480068C1692046884738BD901700204010002072
:4068000010B504468079002809D022214C200155FF212046FFF767F9204600F012F810BD10B5037902464032002B03D01173092B02D003E0002100E02221117300F001F82A
:4068400010BDFEB504460089002700902781207926464036002817D0012815D002280AD112E002AA01A9204601F090FD002807D101980BF0B5FC204601F0B0FD0028F0D06C
:406880002046FEF75DFCB776254680352868002802D00BF0AFFC2F606868002802D00BF0A9FC6F60317B002919D0009800F064F8A078002100F082FF2046FFF7A9FAA0787C
:4068C00001F0B2F8A07800F02FFDFF212046FFF70AF90B20FFF7C2F800F068FCFEBD1F213173E2E7F8B517460E46054602F000FC04003CD020460C3001F03CF820460622B7
:4069000000211830FCF79EF82046062200211230FCF798F81648224600683946436A28469847074626702846FEF7C4FD012148406070002D10D02889608028464030C17814
:406940002171002E0FD169796171018AE180418A2181808A608106E00648008BC005C00F2071002060803946204603F040F9F8BD2810002000102E400A4610B50146002083
:4069800003F052FA10BD10B50BF03CF910BD000000B50146FFF716FA002801D0002000E00348002802D002898A4200D0002000BD9017002038B5044680346068002806D14C
:4069C00068460BF0B9FB002801D100986060606838BD000010B5014600F086FB0128887802D0FEF771FD10BD8C214843024940186030007F10BD00007017002070B50546B5
:406A000004464035A87F012811D1A1788C20084A484380186030067F3046FEF719FF002805D10220A877A078314601F0B7F870BD7017002010B50C4CA07A002813D0FEF71A
:406A4000B3FF0A48027F417F408B00F0B7FB012809D10020A07200F019FF05498989090B01D000F03BFA10BD2C18002070170020A0102E4070477047490510B5490F0B00E3
:406A8000FCF720FD060704080C0C0F073E21FFF787FE10BD0821FFF7C3FE10BDFFF7D1FE10BDFFF7ADFE10BDF8B507460025002D01D0002600E0204E00F096FE3046403030
:406AC00044890021418100F0AFFE304600F001FB01282BD1A00702D52846FFF723FEE00602D52846FFF76EFEA00601D5FEF75CFF600601D500F014FB200602D5284600F0D0
:406B00001DF8600702D5284600F02CFA380402D52846FFF727FB780402D52846FFF714FBE00703D021463046FFF7A6FF6D1C2D062D0EBCD0F8BD000090170020F8B5002819
:406B400001D0002400E0284C002C4BD025464035A878012846D1FF278820493700593E46002805D02149897A890601D5878AC68A2046FEF79FFC012834D002F0BDFA2A8A6A
:406B80006179FFF74FF9009001F06CF800983346283081B23A46204602F050F8E98AA07801F02AFA12480188688A124E002810D048431149FBF7FCFE0004000C01D0401C31
:406BC00080B27080A07DC107C90F002001F0FAFA01E000207080288A698A484381B2A07801F08AFAF8BD0000901700202817002060112E40101000207102000001490968A8
:406C0000096808474010002070B50D460026194A0146002801D0002401E014462034002C26D0204600F060FA01280AD18C20484380186030007FFEF70BFE002801D101F093
:406C4000F7FE0D48006881692046884700280CD020464030817EA94202D3491B817600E086762089294603F080F8204600F05AFC70BD0000701700204010002070B5034692
:406C80000088FFF785FE040013D000F022FA00280FD02079092819D02546997840352973204601F045FF0646A878012803D0AA8A02E0022070BDEA880A2042430121204688
:406CC000FEF706FF002E01D109202071002070BD0EB5002217216B460292198100905A810120029B00990BF02AFB0EBDF8B518480024807A002822D1164E0025B089000BD7
:406D000022E0204600F060FE1249A039401807882A462146384600F051FA012810D00E480122478305770A4944778A72002D01D0002000E02030002801D000F0F3FBF8BD46
:406D4000B089000B641CE4B20028DAD1F8BD00002C180020A0102E407017002010B50088FFF716FE002809D0014640310C460978082905D00B2903D00C2010BD022010BD30
:406D8000FFF728FC002801D009202070002010BD70B503460088FFF7FBFD040008D0254640352878082805D00B2803D00C2070BD022070BD8420005910220830991CFBF719
:406DC00038FE2046FFF7D8FA2878082804D02046FFF78AFC002801D00A202870204600F0A1FB002070BD000010B50C46002121700088FFF7CDFD03000BD000F06AF9002845
:406E000007D00948F121807A0840C00603D4112010BD022010BD022020701A8A1889002103F01EF8002010BD28170020F8B50F46002100910088FFF7ABFD040012D000F02F
:406E400048F900280ED0E079410641D4617E02264A07002A08DB8907402500291ADA2843E07135E00220F8BD02F042F90021017021894180A1898180217E4170E189C180A7
:406E80003E7005460178134802F0C4FC284602F08BFF1DE0204600F02DF9012806D068460BF03AF9002803D00720F8BD2A20F8BDE07900992843E071204601F063FE607EFB
:406EC0000421304360760448C28A2046FEF700FE0020F8BD1D040000281700203EB500220F236C460292238100910190628169460EC900200BF023FA3EBD0000F8B50F46ED
:406F0000054600F08FFA040025D003202071254600264035EE76E6702046FFF7B5F901F057F80920FEF79AFDA07800F06BFD0121204600F011FB2E706E70AE703A460021F2
:406F40002046FFF7CFFC0649887B401C8873A078FFF754FEF8BD284601F0FEF8F8BD00007017002010B5002801D0002000E0094800280DD0014640310A464978022901D1A1
:406F800000215170807DC107C90F002001F01AF910BD00009017002070B503460D460088FFF7F6FC04000BD000F093F8002807D01248F121807A0840C00603D4112070BD67
:406FC000022070BD20464030418A008A491C41430804C10C5888884201D2122070BD20822079072802D12046FFF7D8F8022028702089002102F05CFF002070BD2817002093
:40700000016A491C016204D1817E491C4906490E81767047C169491CC16104D1C17E491C4906490EC1767047F0B5074687B003A8009005A800260D460190002F01D0002493
:4070400000E01B4C002C05D06846FCF7A5F9002803D00BE0022007B0F0BD68460089C00704D18C2200212046FBF7ECFC114829460068826820469047050016D1A770667605
:407080002746267140373E70204600F019F8204601F0A0F9084820820848BE77807AF121084000D001202075E682E8B2D3E700009017002040100020B80B000028170020EA
:4070C000002101628176C161C17620300177417770470079002805D0012803D0022801D001207047002070474030807F002800D00120704740300078002807D0012805D045
:40710000052803D00E2801D0012070470020704710B5807801F0DEF8002800D0012010BD10B500F0B3FB03498989090B01D0FFF7D5FE10BDA0102E4070B5054604464035A6
:40714000A87F002825D1FF206075A0788C21154A484380186030417F8C23491CC9B24177A0785843104B8018DB896030994201D300214177A0788C21484380186030467F99
:407180000677A1783046FEF763FB002802D00120A87770BD0220A877A078314600F0FEFC70BD000070170020481800200020401C0006000EFBD0002070470000F0B51546C9
:4071C0008207920F85B0000A02926A469080002D01D0002400E0524C002C28D0084600F0F3FB07466846808800280BD00298012843D0022841D003280BD03D20005D0128E2
:4072000070D087E04748381801882046FFF72BF880E00020029002A80AF05EFF002807D03D20005D012878D12046FFF7E9FE74E06846029E8388324600213846FCF70AFF7F
